S019000053696D706C655F43616C63756C61746F722E7372656338
S11300000C942A000C943F000C943F000C943F0085
S11300100C943F000C943F000C943F000C943F0060
S11300200C943F000C943F000C943F000C943F0050
S11300300C943F000C943F000C943F000C943F0040
S11300400C943F000C943F000C943F000C943F0030
S11300500C943F0011241FBECFE5D8E0DEBFCDBF16
S113006010E0A0E6B0E0E0E5F0E102C005900D92FA
S1130070A03BB107D9F70E940D030C9426080C94F9
S1130080000041E065E082E00E94230441E064E076
S113009082E00E94230441E063E082E00E942304A2
S11300A041E062E082E00E94230441E065E082E0F6
S11300B00E94990441E064E082E00E94990441E0D6
S11300C063E082E00E94990441E062E082E00E94E1
S11300D0990440E067E083E00E94230440E066E086
S11300E083E00E94230440E065E083E00E9423044F
S11300F040E063E083E00E94230441E067E083E0A2
S11301000E94990441E066E083E00E94990441E082
S113011065E083E00E94990441E063E083E00E948B
S113012099040895BF92CF92DF92EF92FF920F93BA
S11301301F93CF93DF93CDB7DEB761970FB6F894D3
S1130140DEBF0FBECDBF80E1E8E6F0E0DE01119630
S113015001900D928A95E1F700E0BB24BA943FC068
S1130160C02ED12CF601E05AFF4F40E0608182E0BE
S11301700E94990410E028C0E12EF12CF701EC59FB
S1130180FF4FAE014F5E5F4F608183E00E94060522
S11301908989811118C083E294EF0197F1F700C0B7
S11301A00000898981110FC0C601880F991F880F2B
S11301B0991F21E030E02C0F3D1F820F931FFC019B
S11301C0EE0DFF1DB0801F5F1430B0F2F601E05A4F
S11301D0FF4F41E0608182E00E9499040F5F043088
S11301E008F4BECF8B2D61960FB6F894DEBF0FBE18
S11301F0CDBFDF91CF911F910F91FF90EF90DF90D2
S1130200CF90BF900895CF93C82F482F417060E0DE
S113021081E00E949904C1FB442740F961E081E038
S11302200E949904C2FB442740F962E081E00E94E5
S11302309904C3FB442740F964E081E00E949904D7
S1130240CF910895CF93C82F40E063E080E00E94EF
S113025099048C2F82958F700E94030141E062E023
S113026080E00E9499048FE99FE00197F1F700C0B4
S1130270000040E062E080E00E9499048C2F0E941C
S1130280030141E062E080E00E9499048FE99FE06D
S11302900197F1F700C0000040E062E080E00E94B6
S11302A09904CF9108952FE785EB91E02150804088
S11302B09040E1F700C0000040E063E080E00E946D
S11302C0990482E00E94030141E062E080E00E9420
S11302D099048FE99FE00197F1F700C0000040E026
S11302E062E080E00E94990488E20E94220190EF7B
S11302F09A95F1F78FE00E94220120EF2A95F1F7F9
S11303008FE39FE10197F1F700C0000086E00E94AF
S113031022010895CF93C82F41E063E080E00E945A
S113032099048C2F82958F700E94030141E062E052
S113033080E00E9499048FE99FE00197F1F700C0E3
S1130340000040E062E080E00E9499048C2F0E944B
S1130350030141E062E080E00E9499048FE99FE09C
S11303600197F1F700C0000040E062E080E00E94E5
S11303709904CF910895CF93DF9300D0CDB7DEB722
S113038090E8998390EC9A83E1E0F0E0EC0FFD1F94
S1130390E80FF11D8081860F0E9422010F900F90BB
S11303A0DF91CF91089581E00E9422010895CF93B7
S11303B0DF93EC0103C00E948A0121968881811198
S11303C0FACFDF91CF9108952F923F924F925F928F
S11303D06F927F928F929F92AF92BF92CF92DF9251
S11303E0EF92FF920F931F93CF93DF93CDB7DEB7B6
S11303F060970FB6F894DEBF0FBECDBF29833A8352
S11304004B835C836D837E83382E292EA0E00E946B
S11304101A0821F480E30E948A01E6C029813A8106
S11304204B815C816D817E81A0E00E941A08ACF44E
S11304308DE20E948A0129813A814B815C816D8120
S11304407E81832D922D0E94E80729833A834B8372
S11304505C836D837E83382E292E29813A814B81DA
S11304605C816D817E81832D922DA0E00E941A080B
S113047009F094F5B9C02D85392D482D572D662DD9
S1130480752D8E85942D01E00E94F807822E932EFF
S113049048875F83B62FA72FF82FE92F02E00E9429
S11304A0F807A22EB32EC42ED52EE62EF72E082F33
S11304B0192F282D392D48855F816B2F7A2F8F2F87
S11304C09E2F0E9411082D87932E842E752E662E42
S11304D0572E8E87492E0FC081E01F8218861986F9
S11304E01A861B861E861C868D87912C812C712C66
S11304F0612C512C412CAD84B92CC82CD72CE62C62
S1130500F52C0E85142D29813A814B815C816D81F6
S11305107E81832D922D0E948B07A0E00E941A08F1
S113052009F0A9CF9F82888679866A865B864C8685
S11305300F2EFAE0AF2EF02DB12CC12CD12CE12CD2
S1130540F12C00E010E02D853F81488559856A85AE
S11305507B858E859C850E948B07422E532E642EAC
S1130560752E862E972E888B9F872D873F834887ED
S113057059876A877B878E879C87A22EB32EC42EC9
S1130580D52EE62EF72E082F192F29813A814B817B
S11305905C816D817E81832D922D0E948B0780E387
S11305A0820F0E948A0108891F8529813A814B8123
S11305B05C816D817E81832D922D0E948907298320
S11305C03A834B835C836D837E83382E292E242DBE
S11305D0352D462D572D682D792D802F912FA1E093
S11305E00E941A0809F0A4CF60960FB6F894DEBFF3
S11305F00FBECDBFDF91CF911F910F91FF90EF9070
S1130600DF90CF90BF90AF909F908F907F906F902E
S11306105F904F903F902F9008950E9414040E9481
S113062053010E94410064E080E00E94BB0188E71E
S113063090E00E94D70163E081E00E94BB0180E862
S113064090E00E94D7012FEF83EC99E02150804085
S11306509040E1F700C000000E94D301812C912C4E
S1130660540100E010E0D0E0712CE12C0E949200D3
S1130670C82F80ED8C0F8A3008F046C0E11024C0EA
S11306808C2F0E948A0120E030E040E251E4602F88
S1130690712F8D2F972D0E941C072B013C016C2F6D
S11306A070E060537109072E000C880B990B0E94AF
S11306B05C069B01AC01C301B2010E943B05062FFD
S11306C0172FD82F792ED2CF8C2F0E948A0120E0A9
S11306D030E040E251E4C501B4010E941C074B0123
S11306E05C016C2F70E060537109072E000C880BBD
S11306F0990B0E945C069B01AC01C501B4010E94E8
S11307003B054B015C01B2CFCB3231F0CD3221F04D
S1130710CA3211F0CF3229F48C2F0E948A01EC2EB8
S1130720A5CFCD3309F072C08C2F0E948A012BE231
S1130730E21669F02E1520F08AE2E81611F14BC09A
S11307409DE2E91689F02FE2E21641F144C0A501C9
S11307509401602F712F8D2F972D0E943B05062F3A
S1130760172FD82F792E41C0A5019401602F712F26
S11307708D2F972D0E943A05062F172FD82F792EEB
S113078034C0A5019401602F712F8D2F972D0E94E5
S11307901C07062F172FD82F792E27C020E030E012
S11307A0A901C501B4010E94A705882369F0A50128
S11307B09401602F712F8D2F972D0E94AC05062F69
S11307C0172FD82F792E11C00E94D3018BE890E007
S11307D00E94D7014BCF0E94D3018CE990E00E9484
S11307E0D7010D2D1C2DDF2D732C602F712F8D2F14
S11307F0972D0E941E060E94E401D02EC12EFD2ECC
S1130800372C812C912C5401E12C30CFC33409F0C6
S11308102DCF0E94D301812C912C540100E010E0D3
S1130820D0E0712CE12C22CF8DEF8ABB8FEF87BBF8
S11308308DE384BB81E081BB1BBA18BA8CE385BB12
S113084088EE82BB0895843008F072C0683008F0E6
S11308506FC0423008F06CC0813001F130F082305A
S1130860B1F1833009F44CC00895413059F42AB3EE
S113087081E090E002C0880F991F6A95E2F7822B0D
S11308808ABB08952AB381E090E002C0880F991FC3
S11308906A95E2F7809582238ABB0895413059F422
S11308A027B381E090E002C0880F991F6A95E2F7B0
S11308B0822B87BB089527B381E090E002C0880FA4
S11308C0991F6A95E2F78095822387BB089541308A
S11308D059F424B381E090E002C0880F991F6A950F
S11308E0E2F7822B84BB089524B381E090E002C038
S11308F0880F991F6A95E2F78095822384BB089537
S1130900413059F421B381E090E002C0880F991F6F
S11309106A95E2F7822B81BB089521B381E090E0D0
S113092002C0880F991F6A95E2F78095822381BBE4
S11309300895813001F130F08230B1F1833009F44F
S11309404CC00895413059F42BB381E090E002C0CB
S1130950880F991F6A95E2F7822B8BBB08952BB3FE
S113096081E090E002C0880F991F6A95E2F78095B4
S113097082238BBB0895413059F428B381E090E081
S113098002C0880F991F6A95E2F7822B88BB0895ED
S113099028B381E090E002C0880F991F6A95E2F7BE
S11309A08095822388BB0895413059F425B381E0B2
S11309B090E002C0880F991F6A95E2F7822B85BBED
S11309C0089525B381E090E002C0880F991F6A95CD
S11309D0E2F78095822385BB0895413059F422B310
S11309E081E090E002C0880F991F6A95E2F7822B9C
S11309F082BB089522B381E090E002C0880F991F62
S1130A006A95E2F78095822382BB0895813089F04C
S1130A1028F08230C9F0833011F1089589B390E051
S1130A2002C0959587956A95E2F78170FA018083F3
S1130A30089586B390E002C0959587956A95E2F78C
S1130A408170FA018083089583B390E002C0959584
S1130A5087956A95E2F78170FA018083089580B3DF
S1130A6090E002C0959587956A95E2F78170FA0146
S1130A70808308955058BB27AA270E9452050C94DE
S1130A80E2060E94D40638F00E94DB0620F039F416
S1130A909F3F19F426F40C94C1060EF4E095E7FB8D
S1130AA00C94BB06E92F0E94F30658F3BA176207A9
S1130AB073078407950720F079F4A6F50C941507BD
S1130AC00EF4E0950B2EBA2FA02D0B01B901900165
S1130AD00C01CA01A0011124FF27591B99F0593FA9
S1130AE050F4503E68F11A16F040A22F232F342FF1
S1130AF04427585FF3CF469537952795A795F0403F
S1130B005395C9F77EF41F16BA0B620B730B840B53
S1130B10BAF09150A1F0FF0FBB1F661F771F881F0B
S1130B20C2F70EC0BA0F621F731F841F48F4879563
S1130B3077956795B795F7959E3F08F0B0CF939555
S1130B40880F08F09927EE0F9795879508950E94CE
S1130B50970608F481E008950E94C0050C94E2060B
S1130B600E94DB0658F00E94D40640F029F45F3F4F
S1130B7029F00C94BB0651110C9416070C94C10671
S1130B800E94F30668F39923B1F3552391F3951B5F
S1130B90550BBB27AA2762177307840738F09F5F9A
S1130BA05F4F220F331F441FAA1FA9F335D00E2E07
S1130BB03AF0E0E832D091505040E695001CCAF774
S1130BC02BD0FE2F29D0660F771F881FBB1F261737
S1130BD037074807AB07B0E809F0BB0B802DBF010E
S1130BE0FF2793585F4F3AF09E3F510578F00C94DD
S1130BF0BB060C9416075F3FE4F3983ED4F3869546
S1130C0077956795B795F7959F5FC9F7880F911DFD
S1130C109695879597F90895E1E0660F771F881FE9
S1130C20BB1F621773078407BA0720F0621B730B9C
S1130C30840BBA0BEE1F88F7E0950895BEE304D049
S1130C4008F490E80895BFE322273327A9010E94FE
S1130C50FB0660F19F5748F1B91740F1BFE3B91B98
S1130C609927B8503AF4660F771F881F991FB395D8
S1130C70D2F316C0B8504AF0232F342F452F562FE5
S1130C80672F782F8827B850BAF7B85F49F0869550
S1130C90779567955795479537952795BA95B9F7F9
S1130CA016F40E94C40688940895889460E070E065
S1130CB0CB010895E89409C097FB3EF49095809584
S1130CC0709561957F4F8F4F9F4F9923A9F0F92F0E
S1130CD096E9BB279395F695879577956795B7958C
S1130CE0F111F8CFFAF4BB0F11F460FF1BC06F5F72
S1130CF07F4F8F4F9F4F16C0882311F096E911C084
S1130D00772321F09EE8872F762F05C0662371F0A4
S1130D1096E8862F70E060E02AF09A95660F771FB8
S1130D20881FDAF7880F9695879597F90895990F94
S1130D300008550FAA0BE0E8FEEF16161706E807A1
S1130D40F907C0F012161306E407F50798F0621BC2
S1130D50730B840B950B39F40A2661F0232B242B97
S1130D60252B21F408950A2609F4A140A6958FEFB6
S1130D70811D811D089597F99F6780E870E060E008
S1130D8008959FEF80EC08959095809570956095F7
S1130D9050954095309521953F4F4F4F5F4F6F4F82
S1130DA07F4F8F4F9F4F089500240A9416161706FD
S1130DB018060906089500240A9412161306140648
S1130DC005060895092E0394000C11F4882352F0AB
S1130DD0BB0F40F4BF2B11F460FF04C06F5F7F4F63
S1130DE08F4F9F4F089557FD9058440F551F59F04A
S1130DF05F3F71F04795880F97FB991F61F09F3F04
S1130E0079F087950895121613061406551FF2CF2C
S1130E104695F1DF08C0161617061806991FF1CF7C
S1130E2086957105610508940895E894BB276627A3
S1130E307727CB0197F908950E942F070C94E206B7
S1130E400E94D40638F00E94DB0620F0952311F0AE
S1130E500C94BB060C94C10611240C9416070E9432
S1130E60F30670F3959FC1F3950F50E0551F629FF1
S1130E70F001729FBB27F00DB11D639FAA27F00DEF
S1130E80B11DAA1F649F6627B00DA11D661F829F16
S1130E902227B00DA11D621F739FB00DA11D621FFB
S1130EA0839FA00D611D221F749F3327A00D611D18
S1130EB0231F849F600D211D822F762F6A2F1124FA
S1130EC09F5750409AF0F1F088234AF0EE0FFF1F2D
S1130ED0BB1F661F771F881F91505040A9F79E3F84
S1130EE0510580F00C94BB060C9416075F3FE4F3A5
S1130EF0983ED4F3869577956795B795F795E795DA
S1130F009F5FC1F7FE2B880F911D9695879597F9E2
S1130F100895689401C0E8948F929F92CF93DF93D1
S1130F200E949707DF91CF919F908F900895882416
S1130F309924F401E401B0E49F93AA279A158B0441
S1130F409C04ED05FE05CF05D007A10798F4AD2F4D
S1130F50DC2FCF2FFE2FE92D982C892E982F872F49
S1130F60762F652F542F432F322F2227B85031F775
S1130F70BF9127C01B2EBF91BB27220F331F441FD5
S1130F80551F661F771F881F991F881C991CEE1F09
S1130F90FF1FCC1FDD1FAA1FBB1F8A149B04EC0577
S1130FA0FD05CE05DF05A007B10748F08A189B08A8
S1130FB0EC09FD09CE09DF09A00BB10B21601A94DD
S1130FC0E1F62EF49401AF01BE01CD01000C0895A9
S1130FD060957095809590953095409550952195A4
S1130FE03F4F4F4F5F4F6F4F7F4F8F4F9F4F08952E
S1130FF00F93083090F0982F872F762F652F542F5A
S1131000432F322F22270850F4CF220F331F441FBF
S1131010551F661F771F881F991F0A95B2F70F91F6
S113102008952A0D3B1D4C1D5D1D6E1D7F1D801FE7
S1131030911F08950024A7FD00942A173005400548
S1131040500560057005800590050895F894FFCF5C
S113105005040302070605033738392F3435362AC9
S11310603132332D43303D2B57456C434F4D4500B2
S113107043414C43554C41544F5200446976697383
S1131080696F6E204279205A65726F00496E7661ED
S11310906C6964204F70657261746F722021000066
S9030000FC
